:020000040800F2
:1000000040200010A90600080507000805070008A1
:1000100005070008050700080507000800000000A4
:10002000000000000000000000000000810B00083C
:10003000050700080000000005070008B90A0008CD
:100040000507000805070008050700080507000860
:100050000507000805070008050700080507000850
:100060000507000805070008050700080507000840
:100070000507000805070008050700080507000830
:100080000507000805070008050700080507000820
:100090000507000805070008050700080507000810
:1000A0000507000805070008050700080507000800
:1000B00005070008050700080507000805070008F0
:1000C00005070008050700080507000805070008E0
:1000D00005070008050700080507000805070008D0
:1000E00005070008050700080507000805070008C0
:1000F00005070008050700080507000805070008B0
:10010000050700080507000805070008050700089F
:10011000050700080507000805070008050700088F
:10012000050700080507000805070008050700087F
:10013000050700080507000805070008050700086F
:10014000050700080507000805070008050700085F
:10015000050700080507000805070008050700084F
:10016000050700080507000805070008050700083F
:10017000050700080507000805070008050700082F
:10018000050700080507000810B5054C237833B9AA
:10019000044B13B10448AFF300800123237010BD5A
:1001A000AC000020000000002C0D0008084B10B52A
:1001B0001BB108480849AFF300800848036803B939
:1001C00010BD074B002BFBD0BDE81040184700BF07
:1001D000000000002C0D0008B0000020A800002046
:1001E00000000000154B002B08BF134B9D46A3F5E4
:1001F000803A00218B460F461348144A121A00F029
:100200007BFD0F4B002B00D098470E4B002B00D0EE
:1002100098470020002104000D000D48002802D05E
:100220000C48AFF3008000F041FD2000290000F0F1
:10023000E7FC00F027FD00BF000008004020001090
:100240000000000000000000AC000020E4000020DE
:10025000000000000000000080B582B000AF344B09
:100260001B78FB710020002100F0DEF90346BB7112
:10027000BB79002B05D02F4B1B78002B01D101231C
:1002800000E000237B712A4B1A787B791344DAB2A1
:10029000274B1A70FB7903F00F033B713B7903F096
:1002A0000303FB71FB7903F00103002B14BF01234F
:1002B0000023DBB27B717B7903200C211A4600F00E
:1002C000CFF9FB795B08DBB2002B14BF01230023BD
:1002D000DBB27B717B7903200D211A4600F0C0F957
:1002E0003B799B08FB71FB7903F00103002B14BFE2
:1002F00001230023DBB27B717B7903200E211A4698
:1003000000F0AEF9FB795B08DBB2002B14BF0123D0
:100310000023DBB27B717B7903200F211A4600F0AA
:100320009FF9044ABB7913700837BD4680BD00BFF2
:10033000D0000020D400002080B582B002AF254B51
:1003400000221A6024480021012200F0D5FC234B32
:1003500000221A7000230093002301930020012142
:100360000022002300F032F90023009300230193C0
:1003700003204FF480510122002300F027F90023CD
:1003800000930023019303204FF400510122002326
:1003900000F01CF9002300930023019303204FF485
:1003A00080410122002300F011F900230093002373
:1003B000019303204FF400410122002300F006F9CD
:1003C000074B1A79054B1A70054B5A79024B1A7074
:1003D000BD4680BDD8000020D4000020D000002001
:1003E0000000002080B400AFBD465DF8047B70477C
:1003F00080B487B000AF7860396000237B61002350
:100400003B610023FB6000237B6176E07B69012276
:1004100002FA03F33B613B681A683B691340FB60D7
:10042000FA683B699A4265D17B681A687B695B0010
:10043000194603238B40DB431A407B681A607B68B4
:100440001A683B681B7919467B695B0001FA03F364
:100450001A437B681A603B681B79012B03D03B6809
:100460001B79022B2ED17B689A687B695B00194649
:1004700003238B40DB431A407B689A607B689A6851
:100480003B685B7919467B695B0001FA03F31A4309
:100490007B689A607B685A687B699BB21946012326
:1004A0008B40DB431A407B685A607B685B683A6824
:1004B000927911467A6992B201FA02F292B21A4323
:1004C0007B685A607B68DA687B699BB25B000321BA
:1004D00001FA03F3DB431A407B68DA607B68DA6871
:1004E0003B68DB7919467B695B0001FA03F31A4329
:1004F0007B68DA607B6901337B617B690F2B85D96F
:100500001C37BD465DF8047B704700BF80B485B0E2
:1005100000AF78600B467B800023FB737B681A6911
:100520007B881340002B02D00123FB7301E00023E2
:10053000FB73FB7B18461437BD465DF8047B7047A0
:1005400080B483B000AF78600B467B8013467B702D
:100550007B78002B03D07B687A881A8302E07B6863
:100560007A885A830C37BD465DF8047B704700BF1C
:1005700080B483B000AF78600B46FB70FB78002B33
:1005800006D00949084B1A6B7B6813430B6306E0DE
:100590000549054B1A6B7B68DB4313400B630C3733
:1005A000BD465DF8047B70470038024080B483B0DC
:1005B00000AF0346FB71FB79012202FA03F31846F0
:1005C0000C37BD465DF8047B704700BF80B584B032
:1005D00000AF396011461A460346FB710B46BB71EA
:1005E00013467B71FB791846FFF7E0FF0346184678
:1005F0000121FFF7BDFF3B68BB60BB793B737B7993
:100600007B733B7EBB733B7FFB73FB79054A52F8E0
:10061000232007F1080310461946FFF7E9FE1037BB
:10062000BD4680BD0800002080B582B000AF034603
:100630000A46FB711346BB71FB79084A52F8231036
:10064000BB79012202FA03F39BB208461946FFF771
:100650005DFF034618460837BD4680BD08000020F0
:1006600080B582B000AF0346FB710B46BB801346DA
:10067000BB71FB79084A52F82310BB88012202FAA9
:1006800003F39AB2BB79084611461A46FFF758FFA2
:100690000837BD4680BD00BF0800002080B400AF11
:1006A000BD465DF8047B704780B582B000AF104B4B
:1006B0007B60104B3B6007E03B681A1D3A607A682C
:1006C000111D796012681A603B680B4A9342F3D39C
:1006D0000A480B494FF000028842B8BF40F8042B8B
:1006E000FADB00F053F8FFF77DFD0837BD4680BD0B
:1006F000340D000800000020AC000020AC000020F9
:10070000E400002080B400AFFEE700BF80B483B0F7
:1007100000AF7860FEE700BF80B483B000AF03464F
:100720003960FB7197F90730002B0BDA0D49FB7923
:1007300003F00F03043B3A68D2B21201D2B20B4469
:100740001A7609E0084997F907303A68D2B21201DF
:10075000D2B20B4483F800230C37BD465DF8047B0E
:10076000704700BF00ED00E000E100E080B500AFA1
:10077000054A054B5B6943F4007353616FF0040055
:100780000021FFF7C9FF80BD00ED00E080B500AF9C
:10079000154A154BD3F8883043F47003C2F88830FB
:1007A000124A124B1B6843F0010313600F4B0022E7
:1007B0009A600E4A0D4B1B6823F0847323F4803338
:1007C00013600A4B0A4A5A60084A084B1B6823F414
:1007D00080231360054B0022DA6000F087F8024B9B
:1007E0004FF000629A6080BD00ED00E000380240EA
:1007F0001030002480B487B000AF00233B61002399
:100800007B610223FB600023BB6002237B60324BD1
:100810009B6803F00C033B613B69042B07D0082B5A
:1008200009D0002B3FD12D4B2D4A1A603FE02B4BB6
:100830002C4A1A603BE0284B5B6803F480039B0D55
:10084000BB60254B5B6803F03F037B60BB68002BFC
:100850000DD0244A7B68B2FBF3F21F4B596847F670
:10086000C0730B409B0903FB02F37B610CE01C4A45
:100870007B68B2FBF3F2184B596847F6C0730B4024
:100880009B0903FB02F37B61134B5B6803F440336A
:100890001B0C01335B00FB607A69FB68B2FBF3F36E
:1008A0000E4A136003E00D4B0D4A1A6000BF0A4B5D
:1008B0009B6803F0F0031B090B4AD35CDBB23B617E
:1008C000064B1A683B6922FA03F3044A13601C378B
:1008D000BD465DF8047B7047003802402C000020C4
:1008E0000024F40000127A003000002080B483B0AD
:1008F00000AF00237B6000233B60354A344B1B680C
:1009000043F480331360324B1B6803F400333B60C5
:100910007B6801337B603B68002B03D17B68B3F5B8
:10092000A06FF0D12A4B1B6803F40033002B02D0D8
:1009300001233B6001E000233B603B68012B42D177
:10094000234A234B1B6C43F080531364214A214BF1
:100950001B6843F4804313601D4A1D4B9B689360E2
:100960001B4A1B4B9B6843F400439360184A184B87
:100970009B6843F4A0539360154B174A5A60144A7E
:10098000134B1B6843F08073136000BF104B1B6850
:1009900003F00073002BF9D0104B40F205621A608F
:1009A0000B4A0B4B9B6823F003039360084A084BE8
:1009B0009B6843F00203936000BF054B9B6803F004
:1009C0000C03082BF9D10C37BD465DF8047B70474A
:1009D000003802400070004008544007003C0240CC
:1009E00080B483B000AF03463960FB7197F90730DC
:1009F000002B0BDA0D49FB7903F00F03043B3A6837
:100A0000D2B21201D2B20B441A7609E0084997F922
:100A100007303A68D2B21201D2B20B4483F80023F5
:100A20000C37BD465DF8047B704700BF00ED00E069
:100A300000E100E080B582B000AF78607B68013BE8
:100A4000B3F1807F01D301230FE00A4A7B68013BA9
:100A500053604FF0FF300F21FFF7C2FF054B00221C
:100A60009A60044B07221A60002318460837BD46D7
:100A700080BD00BF10E000E080B500AFBFF34F8F36
:100A8000BFF36F8F0A4B1A680A4B1B689A4202D356
:100A9000074B00221A60064B1B685A1C04490A6067
:100AA000002B03D172B600F087F862B680BD00BF9C
:100AB000E0000020DC000020EFF3008001B50148D9
:100AC00000F048F8790A000880B584B000AF87EDDF
:100AD000010A1C4B1B6807EE903AB8EE677AD7ED17
:100AE000017A67EE277AFCEEE77A17EE903AFB6020
:100AF000FB68B3F1807F18D3FB6807EE903AF8EEFD
:100B0000677A9FED117AC7EE877AFCEEE77A17EEE7
:100B1000903A01330D4A13600C4B1B68FA68B2FB24
:100B2000F3F31846FFF786FF05E0084B00221A6032
:100B3000F868FFF77FFF064B00221A601037BD46AA
:100B400080BD00BF2C000020FFFF7F4BDC00002099
:100B5000E00000201EF0100F08BFB0EE400A03B402
:100B600088B004A006904FF0807007907FF00600D8
:100B70008646704703BC8047BFF36F8F00DFFEE7F8
:100B80001EF0100F08BFB0EE400A1EF0040F0CBF9D
:100B9000EFF30880EFF30980816911F8020C00B1CE
:100BA00008E01EF0100F0CBF1AB008B003BC80F3B1
:100BB00000880847FEE700BF80B500AF0E4B1B78EA
:100BC0005A1CD1B20C4A1170002B09D00B4B0122D8
:100BD0001A60094B1B78013BDAB2074B1A7009E027
:100BE00062B6FFF739FB72B6034B1B78013BDAB2F2
:100BF000014B1A7080BD00BFCC000020C80000204F
:100C000080B584B000AF0123FB711B4BFB601B4B15
:100C1000BB6072B6FFF7AAFDFFF7ECFDFFF73EFDE4
:100C2000174B1B6800221A60FFF786FB97ED030A3B
:100C3000FFF74AFF124B1B681B68002B0CBF0123F8
:100C40000023DBB2FB7162B662B608E00C4B1B6896
:100C50001B68002B0CBF01230023DBB2FB71FB7967
:100C6000DBB2002BF2D1FFF7BDFB72B600231846B2
:100C70001037BD4680BD00BFCDCCCC3D0000284321
:100C8000200D000808B5074B044613B10021AFF34F
:100C90000080054B1868836A03B198472046FFF728
:100CA00035FD00BF00000000280D000870B50E4B98
:100CB0000E4CE41AA41000251E46A54204D056F896
:100CC000253098470135F8E700F01EF8084C094B2D
:100CD000E41AA41000251E46A54204D056F825307B
:100CE00098470135F8E770BDA0000020A000002063
:100CF000A4000020A000002002440346934202D03A
:100D000003F8011BFAE77047F8B500BFF8BC08BC50
:100D10009E467047F8B500BFF8BC08BC9E467047B9
:0C0D2000D800002043000000400000202C
:080D2C00B8F4FF7F0100000094
:100D34000100000000010000000002400004024025
:100D440000080240000C024000100240001402405F
:100D540000180240001C024000200240007A030AEE
:100D64000000000000000000010203040607080957
:100D7400000000000000000000000000000000006F
:100D8400000000000000000000000000000000005F
:100D9400240D000800000000000000000000000016
:100DA400000000000000000000000000000000003F
:100DB400000000000000000000000000000000002F
:100DC400000000000000000000000000000000001F
:0C0DD400AD0100088901000800000000CB
:04000005080006A940
:00000001FF
